{
  "contractName": "Delegate",
  "abi": [
    {
      "constant": true,
      "inputs": [
        {
          "name": "",
          "type": "address"
        }
      ],
      "name": "owners",
      "outputs": [
        {
          "name": "",
          "type": "address"
        }
      ],
      "payable": false,
      "stateMutability": "view",
      "type": "function"
    },
    {
      "constant": true,
      "inputs": [
        {
          "name": "",
          "type": "address"
        },
        {
          "name": "",
          "type": "bytes32"
        },
        {
          "name": "",
          "type": "address"
        }
      ],
      "name": "delegates",
      "outputs": [
        {
          "name": "",
          "type": "uint256"
        }
      ],
      "payable": false,
      "stateMutability": "view",
      "type": "function"
    },
    {
      "constant": true,
      "inputs": [
        {
          "name": "",
          "type": "address"
        }
      ],
      "name": "nonce",
      "outputs": [
        {
          "name": "",
          "type": "uint256"
        }
      ],
      "payable": false,
      "stateMutability": "view",
      "type": "function"
    },
    {
      "constant": true,
      "inputs": [
        {
          "name": "",
          "type": "address"
        }
      ],
      "name": "changed",
      "outputs": [
        {
          "name": "",
          "type": "uint256"
        }
      ],
      "payable": false,
      "stateMutability": "view",
      "type": "function"
    },
    {
      "anonymous": false,
      "inputs": [
        {
          "indexed": true,
          "name": "identity",
          "type": "address"
        },
        {
          "indexed": false,
          "name": "actor",
          "type": "address"
        },
        {
          "indexed": false,
          "name": "sender",
          "type": "address"
        }
      ],
      "name": "OwnerRequest",
      "type": "event"
    },
    {
      "anonymous": false,
      "inputs": [
        {
          "indexed": true,
          "name": "identity",
          "type": "address"
        },
        {
          "indexed": false,
          "name": "owner",
          "type": "address"
        },
        {
          "indexed": false,
          "name": "previousChange",
          "type": "uint256"
        }
      ],
      "name": "DIDOwnerChanged",
      "type": "event"
    },
    {
      "anonymous": false,
      "inputs": [
        {
          "indexed": true,
          "name": "identity",
          "type": "address"
        },
        {
          "indexed": false,
          "name": "delegateType",
          "type": "bytes32"
        },
        {
          "indexed": false,
          "name": "delegate",
          "type": "address"
        },
        {
          "indexed": false,
          "name": "validTo",
          "type": "uint256"
        },
        {
          "indexed": false,
          "name": "previousChange",
          "type": "uint256"
        }
      ],
      "name": "DIDDelegateChanged",
      "type": "event"
    },
    {
      "anonymous": false,
      "inputs": [
        {
          "indexed": true,
          "name": "identity",
          "type": "address"
        },
        {
          "indexed": false,
          "name": "name",
          "type": "bytes32"
        },
        {
          "indexed": false,
          "name": "value",
          "type": "bytes"
        },
        {
          "indexed": false,
          "name": "validTo",
          "type": "uint256"
        },
        {
          "indexed": false,
          "name": "previousChange",
          "type": "uint256"
        }
      ],
      "name": "DIDAttributeChanged",
      "type": "event"
    },
    {
      "constant": true,
      "inputs": [
        {
          "name": "identity",
          "type": "address"
        }
      ],
      "name": "identityOwner",
      "outputs": [
        {
          "name": "",
          "type": "address"
        }
      ],
      "payable": false,
      "stateMutability": "view",
      "type": "function"
    },
    {
      "constant": true,
      "inputs": [
        {
          "name": "identity",
          "type": "address"
        },
        {
          "name": "delegateType",
          "type": "bytes32"
        },
        {
          "name": "delegate",
          "type": "address"
        }
      ],
      "name": "validDelegate",
      "outputs": [
        {
          "name": "",
          "type": "bool"
        }
      ],
      "payable": false,
      "stateMutability": "view",
      "type": "function"
    },
    {
      "constant": false,
      "inputs": [
        {
          "name": "identity",
          "type": "address"
        },
        {
          "name": "newOwner",
          "type": "address"
        }
      ],
      "name": "changeOwner",
      "outputs": [],
      "payable": false,
      "stateMutability": "nonpayable",
      "type": "function"
    },
    {
      "constant": false,
      "inputs": [
        {
          "name": "identity",
          "type": "address"
        },
        {
          "name": "sigV",
          "type": "uint8"
        },
        {
          "name": "sigR",
          "type": "bytes32"
        },
        {
          "name": "sigS",
          "type": "bytes32"
        },
        {
          "name": "newOwner",
          "type": "address"
        }
      ],
      "name": "changeOwnerSigned",
      "outputs": [],
      "payable": false,
      "stateMutability": "nonpayable",
      "type": "function"
    },
    {
      "constant": false,
      "inputs": [
        {
          "name": "identity",
          "type": "address"
        },
        {
          "name": "delegateType",
          "type": "bytes32"
        },
        {
          "name": "delegate",
          "type": "address"
        },
        {
          "name": "validity",
          "type": "uint256"
        }
      ],
      "name": "addDelegate",
      "outputs": [],
      "payable": false,
      "stateMutability": "nonpayable",
      "type": "function"
    },
    {
      "constant": false,
      "inputs": [
        {
          "name": "identity",
          "type": "address"
        },
        {
          "name": "sigV",
          "type": "uint8"
        },
        {
          "name": "sigR",
          "type": "bytes32"
        },
        {
          "name": "sigS",
          "type": "bytes32"
        },
        {
          "name": "delegateType",
          "type": "bytes32"
        },
        {
          "name": "delegate",
          "type": "address"
        },
        {
          "name": "validity",
          "type": "uint256"
        }
      ],
      "name": "addDelegateSigned",
      "outputs": [],
      "payable": false,
      "stateMutability": "nonpayable",
      "type": "function"
    },
    {
      "constant": false,
      "inputs": [
        {
          "name": "identity",
          "type": "address"
        },
        {
          "name": "delegateType",
          "type": "bytes32"
        },
        {
          "name": "delegate",
          "type": "address"
        }
      ],
      "name": "revokeDelegate",
      "outputs": [],
      "payable": false,
      "stateMutability": "nonpayable",
      "type": "function"
    },
    {
      "constant": false,
      "inputs": [
        {
          "name": "identity",
          "type": "address"
        },
        {
          "name": "sigV",
          "type": "uint8"
        },
        {
          "name": "sigR",
          "type": "bytes32"
        },
        {
          "name": "sigS",
          "type": "bytes32"
        },
        {
          "name": "delegateType",
          "type": "bytes32"
        },
        {
          "name": "delegate",
          "type": "address"
        }
      ],
      "name": "revokeDelegateSigned",
      "outputs": [],
      "payable": false,
      "stateMutability": "nonpayable",
      "type": "function"
    },
    {
      "constant": false,
      "inputs": [
        {
          "name": "identity",
          "type": "address"
        },
        {
          "name": "name",
          "type": "bytes32"
        },
        {
          "name": "value",
          "type": "bytes"
        },
        {
          "name": "validity",
          "type": "uint256"
        }
      ],
      "name": "setAttribute",
      "outputs": [],
      "payable": false,
      "stateMutability": "nonpayable",
      "type": "function"
    },
    {
      "constant": false,
      "inputs": [
        {
          "name": "identity",
          "type": "address"
        },
        {
          "name": "sigV",
          "type": "uint8"
        },
        {
          "name": "sigR",
          "type": "bytes32"
        },
        {
          "name": "sigS",
          "type": "bytes32"
        },
        {
          "name": "name",
          "type": "bytes32"
        },
        {
          "name": "value",
          "type": "bytes"
        },
        {
          "name": "validity",
          "type": "uint256"
        }
      ],
      "name": "setAttributeSigned",
      "outputs": [],
      "payable": false,
      "stateMutability": "nonpayable",
      "type": "function"
    },
    {
      "constant": false,
      "inputs": [
        {
          "name": "identity",
          "type": "address"
        },
        {
          "name": "name",
          "type": "bytes32"
        },
        {
          "name": "value",
          "type": "bytes"
        }
      ],
      "name": "revokeAttribute",
      "outputs": [],
      "payable": false,
      "stateMutability": "nonpayable",
      "type": "function"
    },
    {
      "constant": false,
      "inputs": [
        {
          "name": "identity",
          "type": "address"
        },
        {
          "name": "sigV",
          "type": "uint8"
        },
        {
          "name": "sigR",
          "type": "bytes32"
        },
        {
          "name": "sigS",
          "type": "bytes32"
        },
        {
          "name": "name",
          "type": "bytes32"
        },
        {
          "name": "value",
          "type": "bytes"
        }
      ],
      "name": "revokeAttributeSigned",
      "outputs": [],
      "payable": false,
      "stateMutability": "nonpayable",
      "type": "function"
    }
  ],
  "bytecode": "0x608060405234801561001057600080fd5b50611344806100206000396000f3006080604052600436106100e45763ffffffff7c0100000000000000000000000000000000000000000000000000000000600035041662c023da81146100e9578063022914a7146101545780630d44625b14610191578063123b5e98146101ce578063240cf1fa14610248578063622b2a3c1461027e57806370ae92d2146102bd5780637ad4b0a4146102de57806380b29f7c146103495780638733d4e81461037457806393072684146103955780639c2c1b2b146103cf578063a7068d661461040c578063e476af5c1461043a578063f00d4b5d146104b2578063f96d0f9f146104d9575b600080fd5b3480156100f557600080fd5b50604080516020600460443581810135601f8101849004840285018401909552848452610152948235600160a060020a03169460248035953695946064949201919081908401838280828437509497506104fa9650505050505050565b005b34801561016057600080fd5b50610175600160a060020a036004351661050b565b60408051600160a060020a039092168252519081900360200190f35b34801561019d57600080fd5b506101bc600160a060020a036004358116906024359060443516610526565b60408051918252519081900360200190f35b3480156101da57600080fd5b50604080516020600460a43581810135601f8101849004840285018401909552848452610152948235600160a060020a0316946024803560ff16956044359560643595608435953695929460c494920191819084018382808284375094975050933594506105499350505050565b34801561025457600080fd5b50610152600160a060020a0360043581169060ff6024351690604435906064359060843516610684565b34801561028a57600080fd5b506102a9600160a060020a036004358116906024359060443516610757565b604080519115158252519081900360200190f35b3480156102c957600080fd5b506101bc600160a060020a036004351661079b565b3480156102ea57600080fd5b50604080516020600460443581810135601f8101849004840285018401909552848452610152948235600160a060020a031694602480359536959460649492019190819084018382808284375094975050933594506107ad9350505050565b34801561035557600080fd5b50610152600160a060020a0360043581169060243590604435166107c0565b34801561038057600080fd5b50610175600160a060020a03600435166107cc565b3480156103a157600080fd5b50610152600160a060020a0360043581169060ff602435169060443590606435906084359060a43516610801565b3480156103db57600080fd5b50610152600160a060020a0360043581169060ff602435169060443590606435906084359060a4351660c4356108dd565b34801561041857600080fd5b50610152600160a060020a0360043581169060243590604435166064356109b8565b34801561044657600080fd5b50604080516020600460a43581810135601f8101849004840285018401909552848452610152948235600160a060020a0316946024803560ff16956044359560643595608435953695929460c49492019181908401838280828437509497506109c59650505050505050565b3480156104be57600080fd5b50610152600160a060020a0360043581169060243516610aee565b3480156104e557600080fd5b506101bc600160a060020a0360043516610afd565b61050683338484610b0f565b505050565b600060208190529081526040902054600160a060020a031681565b600160209081526000938452604080852082529284528284209052825290205481565b600060f860020a60190281306003826105618d6107cc565b600160a060020a0390811682526020808301939093526040918201600020549151600160f860020a03198088168252861660018201526c010000000000000000000000008583168102600283015260168201849052918f1690910260368201527f7365744174747269627574650000000000000000000000000000000000000000604a820152605681018a9052885191928e928b928b928b9260768301918501908083835b602083106106255780518252601f199092019160209182019101610606565b6001836020036101000a038019825116818451168082178552505050505050905001828152602001985050505050505050506040518091039020905061067a886106728a8a8a8a87610c95565b868686610d80565b5050505050505050565b600060f860020a601902813060038261069c8b6107cc565b600160a060020a03908116825260208201929092526040908101600020548151600160f860020a031996871681529490951660018501526c01000000000000000000000000928216830260028501526016840194909452898116820260368401527f6368616e67654f776e6572000000000000000000000000000000000000000000604a84015285160260558201529051908190036069019020905061074f866107498188888887610c95565b84610f0c565b505050505050565b600160a060020a0392831660009081526001602090815260408083208151958652815195869003830190952083529381528382209290941681529252902054421090565b60036020526000908152604090205481565b6107ba8433858585610d80565b50505050565b6105068333848461103d565b600160a060020a0380821660009081526020819052604081205490911680156107f7578091506107fb565b8291505b50919050565b600060f860020a60190281306003826108198c6107cc565b600160a060020a03908116825260208201929092526040908101600020548151600160f860020a031996871681529490951660018501526c010000000000000000000000009282168302600285015260168401949094528a8116820260368401527f7265766f6b6544656c6567617465000000000000000000000000000000000000604a840152605883018790528516026078820152905190819003608c01902090506108d4876108cd8189898987610c95565b858561103d565b50505050505050565b600060f860020a60190281306003826108f58d6107cc565b600160a060020a03908116825260208201929092526040908101600020548151600160f860020a031996871681529490951660018501526c010000000000000000000000009282168302600285015260168401949094528b8116820260368401527f61646444656c6567617465000000000000000000000000000000000000000000604a8401526055830188905286160260758201526089810184905290519081900360a9019020905061067a886109b0818a8a8a87610c95565b868686611189565b6107ba8433858585611189565b600060f860020a60190281306003826109dd8c6107cc565b600160a060020a0390811682526020808301939093526040918201600020549151600160f860020a03198088168252861660018201526c010000000000000000000000008583168102600283015260168201849052918e1690910260368201527f7265766f6b654174747269627574650000000000000000000000000000000000604a82015260598101899052875191928d928a928a92909160798301918401908083835b60208310610aa15780518252601f199092019160209182019101610a82565b6001836020036101000a038019825116818451168082178552505050505050905001975050505050505050604051809103902090506108d487610ae78989898987610c95565b8585610b0f565b610af9823383610f0c565b5050565b60026020526000908152604090205481565b60408051600160a060020a0380861682523381166020830152825187938793928516926000805160206112d9833981519152929081900390910190a2610b54826107cc565b600160a060020a03828116911614610ba4576040805160e560020a62461bcd02815260206004820152601a60248201526000805160206112f9833981519152604482015290519081900360640190fd5b600160a060020a038616600081815260026020908152604080832054815189815291820184905260608201819052608082840181815289519184019190915288517f18ab6b2ae3d64306c00ce663125f2bd680e441a098de1635bd7ad8b0d44965e4958b958b95919493919260a0840191870190808383895b83811015610c35578181015183820152602001610c1d565b50505050905090810190601f168015610c625780820380516001836020036101000a031916815260200191505b509550505050505060405180910390a2505050600160a060020a0390921660009081526002602052604090204390555050565b604080516000808252602080830180855285905260ff881683850152606083018790526080830186905292519092839260019260a08083019392601f19830192908190039091019086865af1158015610cf2573d6000803e3d6000fd5b505050602060405103519050610d07876107cc565b600160a060020a03828116911614610d57576040805160e560020a62461bcd02815260206004820152601a60248201526000805160206112f9833981519152604482015290519081900360640190fd5b600160a060020a0381166000908152600360205260409020805460010190559695505050505050565b60408051600160a060020a0380871682523381166020830152825188938893928516926000805160206112d9833981519152929081900390910190a2610dc5826107cc565b600160a060020a03828116911614610e15576040805160e560020a62461bcd02815260206004820152601a60248201526000805160206112f9833981519152604482015290519081900360640190fd5b600160a060020a03871660008181526002602090815260408083205481518a81524289019281018390526060810182905260808185018181528b51918301919091528a517f18ab6b2ae3d64306c00ce663125f2bd680e441a098de1635bd7ad8b0d44965e4968d968d969594939260a0850192918801918190849084905b83811015610eab578181015183820152602001610e93565b50505050905090810190601f168015610ed85780820380516001836020036101000a031916815260200191505b509550505050505060405180910390a2505050600160a060020a039093166000908152600260205260409020439055505050565b60408051600160a060020a0380851682523381166020830152825186938693928516926000805160206112d9833981519152929081900390910190a2610f51826107cc565b600160a060020a03828116911614610fa1576040805160e560020a62461bcd02815260206004820152601a60248201526000805160206112f9833981519152604482015290519081900360640190fd5b600160a060020a03858116600081815260208181526040808320805473ffffffffffffffffffffffffffffffffffffffff19169589169586179055600282529182902054825194855290840152805191927f38a5a6e68f30ed1ab45860a4afb34bcb2fc00f22ca462d249b8a8d40cda6f7a3929081900390910190a250505050600160a060020a03166000908152600260205260409020439055565b60408051600160a060020a0380861682523381166020830152825187938793928516926000805160206112d9833981519152929081900390910190a2611082826107cc565b600160a060020a038281169116146110d2576040805160e560020a62461bcd02815260206004820152601a60248201526000805160206112f9833981519152604482015290519081900360640190fd5b600160a060020a03808716600081815260016020908152604080832081518a815282519081900384018120855290835281842095891680855295835281842042908190558585526002845293829020548a8252928101959095528481019290925260608401525190917f5a5084339536bcab65f20799fcc58724588145ca054bd2be626174b27ba156f7919081900360800190a2505050600160a060020a0390921660009081526002602052604090204390555050565b60408051600160a060020a0380871682523381166020830152825188938893928516926000805160206112d9833981519152929081900390910190a26111ce826107cc565b600160a060020a0382811691161461121e576040805160e560020a62461bcd02815260206004820152601a60248201526000805160206112f9833981519152604482015290519081900360640190fd5b600160a060020a03808816600081815260016020908152604080832081518b8152825190819003840181208552908352818420958a16808552958352818420428a01908190558585526002845293829020548b8252928101959095528481019290925260608401525190917f5a5084339536bcab65f20799fcc58724588145ca054bd2be626174b27ba156f7919081900360800190a2505050600160a060020a0390931660009081526002602052604090204390555050505600c1b4478db5b24f38328ebdac9594662e6df716872f10b256aa79ff2b7e72865f4f6e6c7920746865206f776e65722063616e2065786563757465000000000000a165627a7a7230582067bcf1c8533b0b0e996cf4ea48c3af164c69227c4fcdf7a6b6d8be6367d2e7860029",
  "source": "pragma solidity 0.4.23;\n\ncontract Delegate {\n\n  mapping(address => address) public owners;\n  mapping(address => mapping(bytes32 => mapping(address => uint))) public delegates;\n  mapping(address => uint) public changed;\n  mapping(address => uint) public nonce;\n\n  event OwnerRequest(\n    address indexed identity,\n    address actor,\n    address sender\n  );\n\n  modifier onlyOwner(address identity, address actor) {\n    emit OwnerRequest(identity, actor, msg.sender);\n    require (actor == identityOwner(identity), \"Only the owner can execute\");\n    _;\n  }\n\n  event DIDOwnerChanged(\n    address indexed identity,\n    address owner,\n    uint previousChange\n  );\n\n  event DIDDelegateChanged(\n    address indexed identity,\n    bytes32 delegateType,\n    address delegate,\n    uint validTo,\n    uint previousChange\n  );\n\n  event DIDAttributeChanged(\n    address indexed identity,\n    bytes32 name,\n    bytes value,\n    uint validTo,\n    uint previousChange\n  );\n\n  function identityOwner(address identity) public view returns(address) {\n    address owner = owners[identity];\n    if (owner != 0x0) {\n      return owner;\n    }\n    return identity;\n  }\n\n  function checkSignature(address identity, uint8 sigV, bytes32 sigR, bytes32 sigS, bytes32 hash) internal returns(address) {\n    address signer = ecrecover(hash, sigV, sigR, sigS);\n    require(signer == identityOwner(identity), \"Only the owner can execute\");\n    nonce[signer]++;\n    return signer;\n  }\n\n  function validDelegate(address identity, bytes32 delegateType, address delegate) public view returns(bool) {\n    uint validity = delegates[identity][keccak256(delegateType)][delegate];\n    return (validity > now);\n  }\n\n  function changeOwner(address identity, address actor, address newOwner) internal onlyOwner(identity, actor) {\n    owners[identity] = newOwner;\n    emit DIDOwnerChanged(identity, newOwner, changed[identity]);\n    changed[identity] = block.number;\n  }\n\n  function changeOwner(address identity, address newOwner) public {\n    changeOwner(identity, msg.sender, newOwner);\n  }\n\n  function changeOwnerSigned(address identity, uint8 sigV, bytes32 sigR, bytes32 sigS, address newOwner) public {\n    bytes32 hash = keccak256(byte(0x19), byte(0), this, nonce[identityOwner(identity)], identity, \"changeOwner\", newOwner);\n    changeOwner(identity, checkSignature(identity, sigV, sigR, sigS, hash), newOwner);\n  }\n\n  function addDelegate(address identity, address actor, bytes32 delegateType, address delegate, uint validity) internal onlyOwner(identity, actor) {\n    delegates[identity][keccak256(delegateType)][delegate] = now + validity;\n    emit DIDDelegateChanged(identity, delegateType, delegate, now + validity, changed[identity]);\n    changed[identity] = block.number;\n  }\n\n  function addDelegate(address identity, bytes32 delegateType, address delegate, uint validity) public {\n    addDelegate(identity, msg.sender, delegateType, delegate, validity);\n  }\n\n  function addDelegateSigned(address identity, uint8 sigV, bytes32 sigR, bytes32 sigS, bytes32 delegateType, address delegate, uint validity) public {\n    bytes32 hash = keccak256(byte(0x19), byte(0), this, nonce[identityOwner(identity)], identity, \"addDelegate\", delegateType, delegate, validity);\n    addDelegate(identity, checkSignature(identity, sigV, sigR, sigS, hash), delegateType, delegate, validity);\n  }\n\n  function revokeDelegate(address identity, address actor, bytes32 delegateType, address delegate) internal onlyOwner(identity, actor) {\n    delegates[identity][keccak256(delegateType)][delegate] = now;\n    emit DIDDelegateChanged(identity, delegateType, delegate, now, changed[identity]);\n    changed[identity] = block.number;\n  }\n\n  function revokeDelegate(address identity, bytes32 delegateType, address delegate) public {\n    revokeDelegate(identity, msg.sender, delegateType, delegate);\n  }\n\n  function revokeDelegateSigned(address identity, uint8 sigV, bytes32 sigR, bytes32 sigS, bytes32 delegateType, address delegate) public {\n    bytes32 hash = keccak256(byte(0x19), byte(0), this, nonce[identityOwner(identity)], identity, \"revokeDelegate\", delegateType, delegate);\n    revokeDelegate(identity, checkSignature(identity, sigV, sigR, sigS, hash), delegateType, delegate);\n  }\n\n  function setAttribute(address identity, address actor, bytes32 name, bytes value, uint validity ) internal onlyOwner(identity, actor) {\n    emit DIDAttributeChanged(identity, name, value, now + validity, changed[identity]);\n    changed[identity] = block.number;\n  }\n\n  function setAttribute(address identity, bytes32 name, bytes value, uint validity) public {\n    setAttribute(identity, msg.sender, name, value, validity);\n  }\n\n  function setAttributeSigned(address identity, uint8 sigV, bytes32 sigR, bytes32 sigS, bytes32 name, bytes value, uint validity) public {\n    bytes32 hash = keccak256(byte(0x19), byte(0), this, nonce[identityOwner(identity)], identity, \"setAttribute\", name, value, validity);\n    setAttribute(identity, checkSignature(identity, sigV, sigR, sigS, hash), name, value, validity);\n  }\n\n  function revokeAttribute(address identity, address actor, bytes32 name, bytes value ) internal onlyOwner(identity, actor) {\n    emit DIDAttributeChanged(identity, name, value, 0, changed[identity]);\n    changed[identity] = block.number;\n  }\n\n  function revokeAttribute(address identity, bytes32 name, bytes value) public {\n    revokeAttribute(identity, msg.sender, name, value);\n  }\n\n function revokeAttributeSigned(address identity, uint8 sigV, bytes32 sigR, bytes32 sigS, bytes32 name, bytes value) public {\n    bytes32 hash = keccak256(byte(0x19), byte(0), this, nonce[identityOwner(identity)], identity, \"revokeAttribute\", name, value); \n    revokeAttribute(identity, checkSignature(identity, sigV, sigR, sigS, hash), name, value);\n  }\n\n}",
  "sourcePath": "/Users/muhammadshaheem/Documents/Work/Projects/d-lib/contracts/contracts/Identity/Delegate.sol",
  "compiler": {
    "name": "solc",
    "version": "0.4.23+commit.124ca40d.Emscripten.clang"
  },
  "schemaVersion": "3.4.7",
  "updatedAt": "2022-10-24T13:15:15.891Z",
  "networkType": "ethereum",
  "devdoc": {
    "methods": {}
  },
  "userdoc": {
    "methods": {}
  }
}